:10C0000031405040374000500A433540401F1583AF
:10C01000FE23B24010005800B240805A200132C2C4
:10C02000A2430E0BB24004BE6401B2406600000B96
:10C03000B24024006001B24000800C0B8243080B28
:10C0400082430A0B874A00002753874A0000275380
:10C050000D43B01270C23F4032000D43B0123CC1DC
:10C06000B01202C2B01294C01F830124F63F1F43D6
:10C07000B740333300002753874A000027530D434E
:10C08000B01270C21F830124F33FB7430000824304
:10C090005800543D3B4000702C4BB24000800C0BCC
:10C0A000B24004BE6401B24024006001B2430E0BF2
:10C0B0002B53A24B080B2B53A24B0A0B2B532B5386
:10C0C0002B53284B08932024B2400040020BB2406F
:10C0D0006000100BB2406000120BB2406600000B13
:10C0E000B240140060012543B01218C38248000B0F
:10C0F00035400600B0122AC33A500600B24066002E
:10C10000000B1543B01218C31C830124D13FA24277
:10C1100060012543B01218C3B240240060011543EA
:10C12000B01218C3A2430E0BB2404000100BB24035
:10C130004000120B1543B01218C330413B40007051
:10C140002C4BB24000800C0BB24004BE6401B240E4
:10C1500024006001A2430E0B2B53A24B080B2B5360
:10C16000A24B0A0B2B532B532B53294B09933F24E0
:10C17000824D020BB2404000100BB2404000120B47
:10C18000B2406600000B2543B01218C3B240A400B1
:10C19000000B35400A00B01218C32E420943B240CA
:10C1A00000B00C0B35400500B01218C38243040BDD
:10C1B0001952040BB24000800C0B35400A00B0123B
:10C1C0002AC31E830124EB3F0910091039C000C0A7
:10C1D0002B832B83284B2B532B53099803308B43F2
:10C1E0000000053C2B8308898B4800002B531C83DF
:10C1F0000124B23FB2406600000BB240240060014F
:10C2000030413B4000702C4B2B532B532B53284B6E
:10C210002B53294B2B532E4B0E9326240889388001
:10C220002111089301340843081008100810081061
:10C23000081008100810081038C0C0FF09100910B5
:10C24000091039C000FF395015000958099301340D
:10C250000943096919C3395000682B838B490000D1
:10C260002B532E498B4E00001C830124CD3F3041BF
:10C270003B4000702C4BB24000800C0BB24004BE1F
:10C280006401B24024006001A2430E0B2B53A24B69
:10C29000080B2B53A24B0A0B2B532B532B53824DC2
:10C2A000020BB2404000100BB2404000120BB240F3
:10C2B0006600000B2543B01218C3B240A400000B67
:10C2C00035400A00B01218C32E420943B24000B0F4
:10C2D0000C0B35400500B01218C38243040B1952F1
:10C2E000040BB24000800C0B35400A00B0122AC388
:10C2F0001E830124EB3F0910091039C000C0874993
:10C30000000027531C830124C13FB2406600000B8C
:10C31000B2402400600130413440FC0C06441683D6
:10C32000FE2306441583FB2330413440220006449B
:10C330001683FE2306441583FB23304182435800B5
:04C340000343304340
:10FFE0003CC33CC33CC33CC33CC33CC33CC33CC319
:10FFF0003CC33CC33CC33CC33CC33CC33CC300C048
:040000030000C00039
:00000001FF
