:10C0000031405040374000500A433540401F1583AF
:10C01000FE23B24010005800B240805A200132C2C4
:10C02000A2430E0BB24004BE6401B2406600000B96
:10C03000B24024006001B24000800C0B8243080B28
:10C0400082430A0B874A00002753874A0000275380
:10C050000D43B0121AC23F402C013D404000B012C7
:10C0600058C13D404000B0128EC01F830124F53FEF
:10C07000B740333300002753874A000027530D434E
:10C08000B0121AC2B7430000824358001E3D3B4025
:10C0900000702C4BB24000800C0BB24004BE640117
:10C0A000B24024006001B2430E0B2B53A24B080B8D
:10C0B0002B53A24B0A0B2B532B532B53284B089378
:10C0C0003124B2404000020BB2406000100BB2407D
:10C0D0006000120BB2406600000BB2401400600119
:10C0E0002543B012A6C2B2400EEA000B3890CCCC69
:10C0F0000924B2400EFE000B3890DDDD0324B2406F
:10C100002600000B1543B012B8C21A53389304200E
:10C110001543B012B8C21A53B2406600000B154363
:10C12000B012A6C21C830124C03FA2426001254375
:10C13000B012A6C2B240240060011543B012A6C2DC
:10C14000A2430E0BB2404000100BB2404000120B55
:10C150001543B012A6C230413B4000702C4BB24098
:10C1600000800C0BB24004BE6401B24024006001A8
:10C17000A2430E0B2B53A24B080B2B53A24B0A0BC3
:10C180002B532B532B53294B09933D24824D020BE8
:10C19000B2404000100BB2404000120BB2406600AB
:10C1A000000B2543B012A6C2B240A400000B3540DC
:10C1B0000A00B012A6C2B24000B00C0B3540050018
:10C1C000B012A6C28243040B1942040BB240008095
:10C1D0000C0B3990541703308B430000143C3990FA
:10C1E000B5160430BB40CCCC00000D3C3990D914BE
:10C1F0000430BB40DDDD0000063C399021110330E6
:10C20000BB40EEEE00001C830124B43FB240660048
:10C21000000BB2402400600130413B4000702C4BC9
:10C22000B24000800C0BB24004BE6401B240240056
:10C230006001A2430E0B2B53A24B080B2B53A24BB6
:10C240000A0B2B532B532B53824D020BB240400051
:10C25000100BB2404000120BB2406600000B2543A9
:10C26000B012A6C2B240A400000B35400A00B012C2
:10C27000A6C2B24000B00C0B35400500B012A6C2F9
:10C280008243040B9742040B00002753B240008006
:10C290000C0B1C830124CF3FB2406600000BB24060
:10C2A0002400600130413440FC0C06441683FE2318
:10C2B00006441583FB233041344022000644168394
:10C2C000FE2306441583FB23304182435800034379
:02C2D0003043F9
:10FFE000CAC2CAC2CAC2CAC2CAC2CAC2CAC2CAC2B1
:10FFF000CAC2CAC2CAC2CAC2CAC2CAC2CAC200C06D
:040000030000C00039
:00000001FF
