:10C000003140504037400060B24010005800B2400C
:10C01000805A200132C2B24064006001A2430E0B7C
:10C020008243080B82430A0B8243020B8243100BAC
:10C030008243120BB240043F64011543B012D2C0D8
:10C04000B240041F6401B2406600000B82430C0B37
:10C0500035403200B012D2C03B4000431C432B534A
:10C060002D4B2B532E4B094D39C0FDFF0993032453
:10C070002B53A24BD001094D39C0F3FF0993032480
:10C080002B53A24BD201094D39C0DFFF0993032482
:10C090002B53A24BD401094D39C03FFF0993032410
:10C0A0002B53A24BD601094D39C0FFFD0993032440
:10C0B0002B53A24BD801054E05930224B012E4C0C5
:10C0C0001C830124D03FB743000082435800034340
:10C0D00030433440FC0C06441683FE23064415838B
:10C0E000FB2330413440220006441683FE230644DD
:06C0F0001583FB23304123
:10FFE000CAC0CAC0CAC0CAC0CAC0CAC0CAC0CAC0C1
:10FFF000CAC0CAC0CAC0CAC0CAC0CAC0CAC000C07B
:040000030000C00039
:00000001FF
