:10C0000031405040374000500A4335408813158373
:10C01000FE23B24010005800B240805A200132C2C4
:10C02000A2430E0BB24004BE6401B2406600000B96
:10C03000B24024006001B24000800C0B8243080B28
:10C0400082430A0B874A00002753874A0000275380
:10C05000B01202C2B01262C0B01202C2B7430000F6
:10C06000373D3B4000702C4BB24000800C0BB2407F
:10C0700004BE6401B24024006001B2430E0BB24022
:10C080006600000BB240140060012543B012ACC240
:10C090002B53A24B080B2B53A24B0A0B2B53284BB1
:10C0A000B24000800C0BB2430E0B08935324824322
:10C0B0000C0BA2430E0BB2404000020BB2404000FA
:10C0C000100BB2404000120BB2402600000B35406E
:10C0D000F401B012BEC21A53B2406600000BB24067
:10C0E00000800C0BB2430E0BB2404000020BB2407A
:10C0F0006000100BB2406000120BB2402600000B33
:10C10000354050C3B012BEC23A50F4018243020B14
:10C1100035403075B012BEC23A502C01B2400050CA
:10C12000020B35403075B012BEC23A502C01B240FD
:10C1300000B0020B35403075B012BEC23A502C012F
:10C14000B2406000020B35403075B012BEC23A50AA
:10C150002C012D3CB2404000020BB2406000100B9D
:10C16000B2406000120BB2402600000B354050C3B5
:10C17000B012BEC28243020B35408813B012BEC259
:10C18000B2400050020B35406400B012BEC2B24053
:10C1900000B0020B35406400B012BEC2B240600075
:10C1A000020B35406400B012BEC23A502902B240C0
:10C1B0006600000B1543B012ACC21C830124683F1B
:10C1C000A24260012543B012ACC2B240240060011B
:10C1D0001543B012ACC2B24000800C0BA2430E0B50
:10C1E000B2404000100BB2404000120B1543B01299
:10C1F000ACC2B740333300002753874A00002753AF
:10C2000030413B4000702C4BB24000800C0BB240E0
:10C2100004BE6401B24024006001A2430E0B2B5304
:10C22000A24B080B2B53A24B0A0B2B53284BB240AB
:10C2300000800C0B0893022482430C0BB240400098
:10C24000020BB2404000100BB2404000120BB24053
:10C250006600000B2543B012ACC2B240A400000B34
:10C2600035400A00B012ACC2B24000B00C0B0893CB
:10C270000324B24000300C0B35400500B012ACC2B4
:10C280008243040B9742040B00002753B240008006
:10C290000C0B1C830124C33FB24000800C0BB24046
:10C2A0006600000BB2402400600130413440FC0CB9
:10C2B00006441683FE2306441583FB233041344095
:10C2C000220006441683FE2306441583FB233041D7
:08C2D000824358000343304390
:10FFE000D0C2D0C2D0C2D0C2D0C2D0C2D0C2D0C281
:10FFF000D0C2D0C2D0C2D0C2D0C2D0C2D0C200C043
:040000030000C00039
:00000001FF
