:10C0000031405040374000500A4335408813158373
:10C01000FE23B24010005800B240805A200132C2C4
:10C02000A2430E0BB24004BE6401B2406600000B96
:10C03000B24024006001B24000800C0B8243080B28
:10C0400082430A0BB01252C0B012C8C0B7430000FE
:10C05000933C1B43B24000800C0BB24004AE640121
:10C06000B240240060018243080B82430A0B354032
:10C070000500B01254C1B2404000020BB240400073
:10C08000100BB2404000120BB2402600000BA2423F
:10C090006001B2430E0B35400300B01254C13A5058
:10C0A0000300A2430E0BB24004BE6401B24066001E
:10C0B000000BB2402400600135401400B01254C19E
:10C0C0001B830124C73F30411B43B24000800C0B4F
:10C0D000B24020006001A2430E0BB2406600000B8C
:10C0E000B2406000020BB2406000100BB240600032
:10C0F000120B8243080B82430A0B35400500B01235
:10C1000054C1B240100060012543B01254C12A53FB
:10C11000B2402000600135400500B01254C1B24069
:10C120004000020BB2404000100BB2404000120B26
:10C13000B2402600000BA24260012543B01254C158
:10C14000B240240060011543B01254C11B83012486
:10C15000BC3F30413440FC0C06441683FE230644A9
:10C160001583FB2330413440220006441683FE230E
:10C1700006441583FB233041824358000343304378
:10FFE00078C178C178C178C178C178C178C178C149
:10FFF00078C178C178C178C178C178C178C100C0B2
:040000030000C00039
:00000001FF
