:10C000003140504037400050B24010005800B2401C
:10C01000805A200132C2A2430E0BB24000800C0BAA
:10C02000B24004BE6401B2406600000BB24024007E
:10C03000600135400A00B01268C0B2406000000BD9
:10C0400035400A00B01268C0B24000B00C0B354059
:10C050000A00B01268C08243040B9742040B000030
:10C0600082435800034330433440FC0C064416839B
:0AC07000FE2306441583FB23304134
:10FFE00060C060C060C060C060C060C060C060C011
:10FFF00060C060C060C060C060C060C060C000C061
:040000030000C00039
:00000001FF
