:10C0000031405040374000500A433540401F1583AF
:10C01000FE23B24010005800B240805A200132C2C4
:10C02000A2430E0BB24004BE6401B2406600000B96
:10C03000B24024006001B24000800C0B8243080B28
:10C0400082430A0B874A00002753874A0000275380
:10C050000D43B0122AC21F430D43B0123EC1B012AD
:10C06000ECC1B0127CC00D43B0122AC21F83012460
:10C07000F33FB7430000824358002F3D3B40007020
:10C080002C4BB24000800C0BB24004BE6401B240A5
:10C0900024006001B2430E0B2B53A24B080B2B5311
:10C0A000A24B0A0B2B532B532B53284B08932624BC
:10C0B000B2400048020BB2406000100BB24060007A
:10C0C000120BB2406600000BB24014006001254321
:10C0D000B012B6C2B2402600000B35400300B012C9
:10C0E000C8C23A50030018830124F73F8B48000070
:10C0F000B2406600000B1543B012B6C21C83012487
:10C10000CB3FA24260012543B012B6C2B240240028
:10C1100060011543B012B6C2A2430E0BB2404000FC
:10C12000100BB2404000120B1543B012B6C2B7401C
:10C13000333300002753874A0000275330413B40E8
:10C1400000702C4BB24000800C0BB24004BE640166
:10C15000B24024006001A2430E0B2B53A24B080BEC
:10C160002B53A24B0A0B2B53284B2B532B53294BEE
:10C1700009933224824D020BB2404000100BB240B2
:10C180004000120BB2406600000B2543B012B6C24D
:10C19000B240A400000B35400A00B012B6C2B24053
:10C1A00000B00C0B35400500B012B6C28243040B40
:10C1B0001942040BB24000800C0B099803308B43EA
:10C1C00000000A3C399021110234394021112B839F
:10C1D00008898B4800002B531C830124BE3FB240CA
:10C1E0006600000BB2402400600130413B4000700B
:10C1F0002C4B2B532B532B532B53294B2B532E4B65
:10C200000E930F24091009100910091009100910C4
:10C2100039C000FF096919C3395000682E498B4E97
:10C2200000001C830124E53F30413B4000702C4B53
:10C23000B24000800C0BB24004BE6401B240240046
:10C240006001A2430E0B2B53A24B080B2B53A24BA6
:10C250000A0B2B532B532B53824D020BB240400041
:10C26000100BB2404000120BB2406600000B254399
:10C27000B012B6C2B240A400000B35400A00B012A2
:10C28000B6C2B24000B00C0B35400500B012B6C2C9
:10C290008243040B9742040B00002753B2400080F6
:10C2A0000C0B1C830124CF3FB2406600000BB24050
:10C2B0002400600130413440FC0C06441683FE2308
:10C2C00006441583FB233041344022000644168384
:10C2D000FE2306441583FB23304182435800034369
:02C2E0003043E9
:10FFE000DAC2DAC2DAC2DAC2DAC2DAC2DAC2DAC231
:10FFF000DAC2DAC2DAC2DAC2DAC2DAC2DAC200C0FD
:040000030000C00039
:00000001FF
