:10C0000031405040374000500A433540401F1583AF
:10C01000FE23B24010005800B240805A200132C2C4
:10C02000A2430E0BB24004BE6401B2406600000B96
:10C03000B24024006001B24000800C0B8243080B28
:10C0400082430A0B874A00002753874A0000275380
:10C050000D43B0125CC23F400A000D43B01240C114
:10C06000B012ECC1B0128CC01F830124F63FB74060
:10C07000333300002753874A000027530D43B01283
:10C080005CC2B743000082435800403D3B40007013
:10C090002C4BB24000800C0BB24004BE6401B24095
:10C0A00024006001B2430E0B2B53A24B080B2B5301
:10C0B000A24B0A0B2B532B532B53284B08932624AC
:10C0C000B2400048020BB2406000100BB24060006A
:10C0D000120BB2406600000BB24014006001254311
:10C0E000B012E8C2B2402600000B35400300B01287
:10C0F000FAC23A50030018830124F73FBB43000003
:10C10000B2406600000B1543B012E8C21C83012444
:10C11000CB3FA24260012543B012E8C2B2402400E6
:10C1200060011543B012E8C2A2430E0BB2404000BA
:10C13000100BB2404000120B1543B012E8C2304160
:10C140003B4000702C4BB24000800C0BB24004BE50
:10C150006401B24024006001A2430E0B2B53A24B9A
:10C16000080B2B53A24B0A0B2B53284B3880F4019E
:10C170002B532B53294B09932F24824D020BB24092
:10C180004000100BB2404000120BB2406600000BA2
:10C190002543B012E8C2B240A400000B35400A00AB
:10C1A000B012E8C2B24000B00C0B35400500B0122E
:10C1B000E8C28243040B1942040BB24000800C0B0E
:10C1C000099803308B430000073C2B833850C8008C
:10C1D00008898B4800002B531C830124BF3FB240C9
:10C1E0006600000BB2402400600130413B4000700B
:10C1F0002C4B2B532B532B53284B38802C012B5378
:10C20000294B2B532E4B0E9325240889389021114E
:10C2100002343840211138802111095808100810C3
:10C22000081008100810081038C000FF086818C36C
:10C230003850006809100910091009100910091078
:10C2400039C000FF096919C3395000682E492E888A
:10C250008B4E00001C830124CC3F30413B400070DA
:10C260002C4BB24000800C0BB24004BE6401B240C3
:10C2700024006001A2430E0B2B53A24B080B2B533F
:10C28000A24B0A0B2B532B532B53824D020BB24064
:10C290004000100BB2404000120BB2406600000B91
:10C2A0002543B012E8C2B240A400000B35400A009A
:10C2B000B012E8C2B24000B00C0B35400500B0121D
:10C2C000E8C28243040B9742040B00002753B2409C
:10C2D00000800C0B1C830124CF3FB2406600000B92
:10C2E000B2402400600130413440FC0C0644168307
:10C2F000FE2306441583FB233041344022000644CC
:10C300001683FE2306441583FB23304182435800E5
:04C310000343304370
:10FFE0000CC30CC30CC30CC30CC30CC30CC30CC399
:10FFF0000CC30CC30CC30CC30CC30CC30CC300C098
:040000030000C00039
:00000001FF
