:10C000003140504037400060B24010005800B2400C
:10C01000805A200132C2B24064006001A2430E0B7C
:10C020008243080B82430A0B8243020B8243100BAC
:10C030008243120BB240043F64011543B01208C1A1
:10C04000B240041F6401B240A400000B82430C0BF9
:10C0500035403200B01208C13B4000432C4B2B53FB
:10C060002D4B2B532E4B094D39C0FCFF0993032454
:10C070002B53A24BD001094D39C0F3FF0993032480
:10C080002B53A24BD201094D39C0CFFF0993032492
:10C090002B53A24BD401094D39C03FFF0993032410
:10C0A0002B53A24BD601094D39C0FFFC0993032441
:10C0B0002B53A24BD801054E05930224B0121AC18E
:10C0C000384000422F482853A248080B2853A24862
:10C0D0000A0B82430C0BB24000300C0B35400500BC
:10C0E000B01208C18243040B9742040B000027538F
:10C0F0001F830124E83F1C830124B53FB7430000A0
:10C1000082435800034330433440FC0C06441683FA
:10C11000FE2306441583FB233041344022000644AD
:0CC120001683FE2306441583FB233041E8
:10FFE00000C100C100C100C100C100C100C100C109
:10FFF00000C100C100C100C100C100C100C100C0FA
:040000030000C00039
:00000001FF
